:1000000086C600000C946A140C943F140C941414CB
:100010000C94E9130C94BE130C9493130C94681372
:100020000C943D13A5C60000A3C60000A1C60000A5
:100030009FC600009DC600009BC6000099C6000038
:1000400097C6000095C6000093C6000091C6000048
:100050008FC600008DC600008BC600000C94F31202
:1000600087C600000C94F8100C94CF1081C60000D5
:100070007FC600007DC600007BC6000079C6000078
:1000800077C6000075C6000073C6000071C6000088
:100090006FC600006DC600006BC600000C9495147E
:1000A00067C6000065C6000063C6000061C60000A8
:1000B0005FC600005DC600005BC6000059C60000B8
:1000C00057C6000055C6000053C6000051C60000C8
:1000D0004FC600004DC600004BC6000049C60000D8
:1000E00047C600005D1160114F1153115711971150
:1000F000641168116E11721176117C1180118411D6
:1001000097118A118E1192110F12141219122312C3
:100110002D12A61237123F12471251125B126512AE
:1001200074127E12A612881292129C1200407A104B
:10013000F35A00A0724E18090010A5D4E80000E898
:100140007648170000E40B54020000CA9A3B0000F6
:1001500000E1F505000080969800000040420F0085
:100160000000A08601000000102700000000E80346
:10017000000000006400000000000A000000000011
:100180000100000000002C76D888DC674F0823DFD0
:10019000C1DFAE59E1B1B796E5E3E453C63AE651A3
:1001A000997696E8E6C28426EB898C9B62ED407CCA
:1001B0006FFCEFBC9C9F40F2BAA56FA5F490055A66
:1001C0002AF75C936B6CF9676DC11BFCE0E40D478B
:1001D000FEF520E6B500D0ED902E030094357705AE
:1001E0000080841E080000204E0A000000C80C3366
:1001F0003333330F986E12831141EF8D2114893BF5
:10020000E65516CFFEE6DB18D1844B381BF77C1D74
:10021000901DA4BBE424203284725E228100C9F1C7
:1002200024ECA1E53D276364696E6F70737578589F
:100230005B0000002100240027002A002D00300070
:10024000330001010000040107010A01DB40A4A6FC
:100250002EAFDA0281DA1281DA02818F2000A1C882
:10026000D300408DAED580A80102102020080810D0
:100270002040102040800201020108040201010216
:1002800004081020408080402010080402018004EF
:10029000020180402010080402010804020101024A
:1002A0000408102040800102040810204080000053
:1002B0002200250028002B002E003100340002010E
:1002C0000000050108010B010505050507050808E3
:1002D0000808020202020A0A0808040404040101D0
:1002E00001010101010103030303030303030407E5
:1002F00007070C0C0C0C0C0C0C0C0202020206067C
:100300000606060606060B0B0B0B0B0B0B0B000071
:10031000600000000000000000000000000000E09D
:100320000000000000000000000000000001E000EC
:1003300000000000000000000000000001F00000CC
:10034000000000000000000000000003F0000000BA
:100350000000000000000000000007F000000000A6
:1003600000000000000000000007F800000000008E
:1003700000000000000000000FF800000003C000B3
:100380007E000001E0007F0FF800000003C000FEC7
:10039000000001E000FFEFF800000003C000FE00D5
:1003A0000001E000FFFFF800000003C000F00000C3
:1003B000000F007FFE7FC0000003C000F0000000BF
:1003C0000F003FFE7FF83FF1FBCFFCFEF3BC3DEF9B
:1003D000E01FFE7FFF7FFBFFDFFEFEFFBC3DEFE087
:1003E0001FC6FFFF7FFBFFDFFEFEFFBC3DEFE00F00
:1003F000E3C7FE787BC3DE1EF0FFBC3DEF0007FFC6
:1004000087FC787BC3DE1EF0F83C3DEF0001FFFF68
:10041000F0007BC3C01EF0F03C3DEF0001F37FE035
:100420003FFBC3CFFEF0F03C3DEF0003E33F807F96
:10043000FBC3DFFEF0F03C3DEF0007E73C00787BBC
:10044000C3DE1EF0F03C3DEF0007FFBE00787BC32B
:10045000DE1EF0F03C3DEF0007FFFE00787BC3DEC0
:100460001EF0F03C3DEF000FFFFE007FFBFFDFFEC4
:10047000F0F03FFDEFE00FFFFF007FFBFFDFFEF03E
:10048000F03FFDEFE00FF9FF003E79F9CF9EF0F06D
:100490001F3DE7E01FF1FF0000000000000000002A
:1004A0000000001F80FF007FFFFFFFFFFFFFFFFF37
:1004B000FFE01C007F007FFFFFFFFEB46D888D18FA
:1004C000E000001F007FFFFFFFFE95AD7DB577E0E8
:1004D00000000F007FFFFFFFFEA5AD9D8D19E0001E
:1004E0000006007FFFFFFFFEB5ADEDB57EE000002A
:1004F00000000001800000000000000000000380F8
:1005000000000000000000000007C0000000000024
:100510000000000007C00000000000000000000F05
:10052000C00000000000000000001FE0000000000C
:1005300000000000001FE0000000000000000000BC
:100540003FE00000000000000000003FF00000005D
:100550000000000000007FF0000000000000001F0D
:10056000F87FF0000000000000003FFE7FF0000078
:1005700000000000003FFF7FF000000000000000CE
:100580001FFFFBE0000000000000000FFFF9FFC0AC
:100590000000000000000FFFF9FFF800000000005D
:1005A0000007FFF1FFFF00000000000003FC73FFE5
:1005B000FF80000000000001FE3FFFFF8000000000
:1005C000000000FF1E0FFF000000000000007FFE83
:1005D0001FFC000000000000003FFFFFF8000000CB
:1005E000000000000FDFFFE0000000000000001F1F
:1005F00019FFC0000000000000003F3CFF000000A9
:1006000000000000007E7CF80000000000000000F8
:100610007FFE7C0000000000000000FFFFFC0000E7
:10062000000000000000FFFFFE00000000000000CE
:1006300000FFFFFE0000000000000001FFEFFE00D1
:1006400000000000000001FFCFFE000000000000DD
:100650000003FF07FE0000000000000003FC07FE8F
:100660000000000000000003F003FE000000000096
:100670000000018000FE00000000000000000000FB
:100680007E000000000000000000003E00000000AE
:100690000000000000000C000000000000078000C7
:1006A000FC000003C0000000078001FC000003C044
:1006B000000000078001FC000003C000000007806C
:1006C00001E00000001E000000078001E0000000C3
:1006D0001E007FE3F79FF9FDE7787BDFC0FFF7FFA0
:1006E000BFFDFDFF787BDFC0FFF7FFBFFDFDFF789B
:1006F0007BDFC0F0F787BC3DE1FF787BDE00F0F7E1
:1007000087BC3DE1F0787BDE0000F787803DE1E0CB
:10071000787BDE007FF7879FFDE1E0787BDE00FFDE
:10072000F787BFFDE1E0787BDE00F0F787BC3DE1B5
:10073000E0787BDE00F0F787BC3DE1E0787BDE000F
:10074000F0F787BC3DE1E0787BDE00FFF7FFBFFDFF
:10075000E1E07FFBDFC0FFF7FFBFFDE1E07FFBDFF4
:10076000C07CF3F39F3DE1E03E7BCFC00000000082
:1007700000000000000000FFFFFFFFFFFFFFFFFF82
:10078000FFC0FFFFFFFFFD68DB111A31C0FFFFFF55
:10079000FFFD2B5AFB6AEFC0FFFFFFFFFD4B5B3BEA
:1007A0001A33C0FFFFFFFFFD6B5BDB6AFDC000007B
:1007B0000A0B02090C0D0E080703040100000000DB
:1007C0000000000000000000000000000000000029
:1007D00000000000000000000000121110000000E6
:1007E0000000000000000000000000000000000009
:1007F000000000002200FF2100000103070F1F3F3F
:100800007F0080C0E0F0F8FCFE00000000003E5BCE
:100810004F5B3E3E6B4F6B3E1C3E7C3E1C183C7E4D
:100820003C181C577D571C1C5E7F5E1C00183C1832
:1008300000FFE7C3E7FF0018241800FFE7DBE7FF2E
:1008400030483A060E2629792926407F05050740BB
:100850007F05253F5A3CE73C5A7F3E1C1C08081C7C
:100860001C3E7F14227F22145F5F005F5F06097FBA
:10087000017F006689956A606060606094A2FFA253
:100880009408047E040810207E201008082A1C0802
:10089000081C2A08081E101010100C1E0C1E0C300C
:1008A000383E3830060E3E0E060000000000000004
:1008B0005F00000007000700147F147F14242A7FC4
:1008C0002A12231308646236495620500008070391
:1008D00000001C2241000041221C002A1C7F1C2A0F
:1008E00008083E0808008070300008080808080062
:1008F0000060600020100804023E5149453E00425D
:100900007F400072494949462141494D331814122C
:100910007F1027454545393C4A4949314121110954
:10092000073649494936464949291E000014000046
:100930000040340000000814224114141414140060
:100940004122140802015909063E415D594E7C12AC
:1009500011127C7F494949363E414141227F414144
:10096000413E7F494949417F090909013E414151C1
:10097000737F0808087F00417F41002040413F010C
:100980007F081422417F404040407F021C027F7F4D
:100990000408107F3E4141413E7F090909063E415E
:1009A00051215E7F09192946264949493203017FB1
:1009B00001033F4040403F1F2040201F3F40384040
:1009C0003F631408146303047804036159494D43D9
:1009D000007F4141410204081020004141417F0451
:1009E0000201020440404040400003070800205438
:1009F0005478407F28444438384444442838444498
:100A0000287F385454541800087E090218A4A49C66
:100A1000787F0804047800447D40002040403D0079
:100A20007F1028440000417F40007C047804787CDB
:100A3000080404783844444438FC18242418182442
:100A40002418FC7C08040408485454542404043F2B
:100A500044243C4040207C1C2040201C3C40304032
:100A60003C44281028444C9090907C4464544C445E
:100A700000083641000000770000004136080002FF
:100A8000010204023C2623263C1EA1A161123A4029
:100A900040207A385454555921555579412254549F
:100AA0007842215554784020545579400C1E52729A
:100AB0001239555555593954545459395554545877
:100AC0000000457C410002457D420001457C407D9F
:100AD0001211127DF0282528F07C54554500205431
:100AE000547C547C0A097F4932494949323A44448A
:100AF000443A324A4848303A4141217A3A42402009
:100B000078009DA0A07D3D4242423D3D4040403D99
:100B10003C24FF2424487E4943662B2FFC2F2BFFC7
:100B20000929F620C0887E09032054547941000029
:100B3000447D413048484A32384040227A007A0A9F
:100B40000A727D0D19317D2629292F282629292968
:100B50002630484D4020380808080808080808389A
:100B60002F10C8ACBA2F102834FA00007B00000800
:100B7000142A142222142A14085500550055AA5587
:100B8000AA55AAFF55FF55FF000000FF00101010E6
:100B9000FF00141414FF001010FF00FF1010F010DD
:100BA000F0141414FC001414F700FF0000FF00FF01
:100BB0001414F404FC141417101F10101F101F1429
:100BC00014141F00101010F0000000001F1010106F
:100BD000101F10101010F010000000FF1010101067
:100BE0001010101010FF10000000FF140000FF0094
:100BF000FF00001F10170000FC04F4141417101756
:100C00001414F404F40000FF00F714141414141462
:100C100014F700F7141414171410101F101F1414D5
:100C200014F4141010F010F000001F101F0000004A
:100C30001F14000000FC140000F010F01010FF1052
:100C4000FF141414FF141010101F00000000F01007
:100C5000FFFFFFFFFFF0F0F0F0F0FFFFFF000000EC
:100C60000000FFFF0F0F0F0F0F3844443844FC4AB9
:100C70004A4A347E02020606027E027E026355491B
:100C800041633844443C04407E201E2006027E021C
:100C90000299A5E7A5991C2A492A1C4C7201724C9D
:100CA000304A4D4D303048784830BC625A463D3E5F
:100CB000494949007E0101017E2A2A2A2A2A444400
:100CC0005F444440514A444040444A51400000FF80
:100CD0000103E080FF000008086B6B083612362421
:100CE00036060F090F06000018180000001010004B
:100CF0003040FF0101001F01011E00191D171200E5
:100D00003C3C3C3C00000000000090247E24112468
:100D10001FBECFEFD1E2DEBFCDBF00E00CBF25E0AC
:100D2000A0E8B3E001C01D92A834B207E1F713E0D8
:100D3000A0E0B2E0E2EEFEE500E00BBF02C00790EB
:100D40000D92A038B107D9F716E0C6E8D6E000E06A
:100D500006C021970109802FFE010E94F429C538A1
:100D6000D10780E00807A9F70E94F11E0C94602FBC
:100D700047C90895E0918D0380918C03E81730F402
:100D8000F0E0E056FC4F808190E008958FEF9FEFF8
:100D9000089590918D0380918C03981750F4E92F5A
:100DA000F0E0E056FC4F208130E09F5F90938D0390
:100DB00002C02FEF3FEFC901089580918C0390E0AE
:100DC00020918D03821B91090895FC0177FDB9C024
:100DD00080859185681779070CF0B3C057FDB1C0C5
:100DE00082859385481759070CF0089585898230CC
:100DF00079F484819581DC01A61BB70BBD0161509C
:100E0000710986819781DC01A41BB50BAD010EC071
:100E1000833009F084C064277527CA018627972785
:100E20006827792746815781481B590B4150510942
:100E30002130310531F048F12230310509F44AC042
:100E40000895CA0157FD07969C01A3E035952795A3
:100E5000AA95E1F7A481B5812A9FC0012B9F900D2F
:100E60003A9F900D1124680F791F068CF78DE02DA5
:100E7000E60FF71F4770552781E090E001C0880F0B
:100E80004A95EAF79081892B48C0CA0157FD079619
:100E90009C0193E0359527959A95E1F7A481B5815A
:100EA0002A9FC0012B9F900D3A9F900D1124680F2F
:100EB000791F068CF78DE02DE60FF71F4770552739
:100EC00081E090E001C0880F4A95EAF78095908113
:100ED000892323C0CA0157FD07969C0183E03595FD
:100EE00027958A95E1F7A481B5812A9FC0012B9FA0
:100EF000900D3A9F900D1124680F791F068CF78D85
:100F0000E02DE60FF71F4770552781E090E001C004
:100F1000880F4A95EAF79081892780830895813068
:100F200009F086CF6427752746275727642775273A
:100F300084819581DC01A61BB70BBD01615071094D
:100F400077CF08950895FC016370658B8481958146
:100F500026813781613039F0633029F091878087AD
:100F60003387228708953187208793878287089562
:100F70006F927F928F929F92AF92BF92CF92DF92A9
:100F8000EF92FF920F931F93CF93DF93EC014B01EE
:100F90005A0169013801E881F9810284F385E02D65
:100FA0001995E881F9810288F389E02D870196017E
:100FB000A501B401CE011995A501460D571D41505B
:100FC0005109E881F9810288F389E02D9601B40185
:100FD000CE011995E881F9810088F189E02D93010E
:100FE000A501B401CE011995C80CD91CB6016150F8
:100FF0007109E881F9810088F189E02D9301A5014B
:10100000CE011995E881F9810688F789E02DCE0196
:10101000DF91CF911F910F91FF90EF90DF90CF90D4
:10102000BF90AF909F908F907F906F9019948F9208
:101030009F92AF92BF92CF92DF92EF92FF920F9367
:101040001F93CF93DF934C016B015A01E901DC013F
:10105000ED91FC916217730781F40417150724F4CE
:101060008B2D5801042F182F0A191B0998012F5F87
:101070003F4F048CF58DE02D12C04017510709F544
:101080002617370724F48D2D6901C62FD82F9E010E
:101090002C193D092F5F3F4F068CF78DE02D8701FE
:1010A000A501B601C4011995DF91CF911F910F9150
:1010B000FF90EF90DF90CF90BF90AF909F908F9078
:1010C00008950284F385E02D1995D401ED91FC91EA
:1010D0000488F589E02D9E01A501B601C40119958A
:1010E000D401ED91FC910688F789E02DC401DF91D0
:1010F000CF911F910F91FF90EF90DF90CF90BF9015
:10110000AF909F908F901994EF92FF920F931F933F
:10111000DC011A960D911C911B9718962D913C910C
:101120001997ED91FC9100A0F1A1E02D7B0140E029
:1011300050E060E070E019951F910F91FF90EF90E3
:1011400008954F925F926F927F928F929F92AF928B
:10115000BF92CF92DF92EF92FF920F931F93CF93A4
:10116000DF936C012B015A0139014801DC01ED913B
:10117000FC910284F385E02D1995E201640C751C45
:10118000D601ED91FC91C615D7055CF40088F18974
:10119000E02D87019401A501BE01C6011995219694
:1011A000EFCF0688F789E02DC601DF91CF911F911F
:1011B0000F91FF90EF90DF90CF90BF90AF909F90F6
:1011C0008F907F906F905F904F9019948F929F9225
:1011D000AF92BF92CF92DF92EF92FF920F931F9345
:1011E000CF93DF93EC015B014A016901E881F9814A
:1011F0000284F385E02D199595012C0D3D1D21509C
:101200003109E881F9810488F589E02D78018401AC
:10121000A401B501CE011995E881F9810688F78905
:10122000E02DCE01DF91CF911F910F91FF90EF90B4
:10123000DF90CF90BF90AF909F908F9019948F9236
:101240009F92AF92BF92CF92DF92EF92FF920F9355
:101250001F93CF93DF93EC015B014A016901780191
:10126000E881F9810284F385E02D1995C80CD91C19
:10127000860101501109E881F9810488F589E02D82
:101280009501A401B501CE011995E881F98106887F
:10129000F789E02DCE01DF91CF911F910F91FF9043
:1012A000EF90DF90CF90BF90AF909F908F90199468
:1012B000EF92FF920F931F93DC01ED91FC9100A040
:1012C000F1A1E02D19951F910F91FF90EF900895D6
:1012D0000F931F93DC01ED91FC91068CF78DE02DAF
:1012E00019951F910F9108950F931F93DC01ED91B4
:1012F000FC91048CF58DE02D19951F910F910895A7
:10130000DC01ED91FC910084F185E02D19942F9280
:101310003F924F925F926F927F928F929F92AF9285
:10132000BF92CF92DF92EF92FF920F931F93CF93D2
:10133000DF9300D000D0CDB7DEB72C017E836D8364
:101340006A015901C801FC82EB824801841A950A9E
:1013500097FE03C091948194910835012D813E81BF
:10136000621A730A77FE03C071946194710868145D
:1013700079045CF43A2D2B2D5C01832F922F3D8153
:101380002E81DE82CD82C32ED22EAD81BE81AA16E1
:10139000BB065CF43C2D2D2D6C01832F922F3D81DB
:1013A0002E81BE82AD82A32EB22E85012D813E817B
:1013B000021B130B1C012C183D0837FE03C031948F
:1013C00021943108780117FF03C03FEFE31AF30AB5
:1013D000F594E794C816D9062CF08FEF9FEF9A8307
:1013E000898304C0A1E0B0E0BA83A9832D813E8146
:1013F000A216B30624F1D201ED91FC910484F58587
:10140000E02D2B813C816814790424F44D815E81A8
:10141000B60103C0A6016D817E81C2011995E21853
:10142000F308F7FE06C029813A81C20ED31EE00EF2
:10143000F11E8D819E8101969E838D83D7CF269646
:101440000FB6F894DEBF0FBECDBFDF91CF911F91D5
:101450000F91FF90EF90DF90CF90BF90AF909F9053
:101460008F907F906F905F904F903F902F90089556
:10147000089580E090E00895CF92DF92EF92FF927E
:101480000F931F93CF93DF937C01CB018A012091AF
:101490003304222389F0EB016B01C40ED51ECC1559
:1014A000DD0569F06991D701ED91FC910190F08122
:1014B000E02DC7011995F3CF642F0E94C615C8010E
:1014C000DF91CF911F910F91FF90EF90DF90CF9020
:1014D0000895CF93DF931F92CDB7DEB76983209134
:1014E00033042223D1F020915604203240F021E031
:1014F00030E0FC013383228380E090E015C08091CE
:101500003404E82FF0E0EB5CFB4F998190838F5F10
:10151000809334048093560405C061E0CE010196A7
:101520000E94C61581E090E00F90DF91CF91089561
:10153000CF92DF92EF92FF920F931F930E94E712D8
:1015400000918403109185032091860330918703D5
:101550006B017C01C01AD10AE20AF30A97018601E5
:10156000023011052105310550F020919003309192
:1015700091032F5F3F4F309391032093900360932B
:1015800084037093850380938603909387031F9150
:101590000F91FF90EF90DF90CF900895CF92DF9260
:1015A000EF92FF920F931F930E94E7120091800326
:1015B0001091810320918203309183036B017C01A0
:1015C000C01AD10AE20AF30A970186010230110516
:1015D0002105310550F020918E0330918F032F5F4C
:1015E0003F4F30938F0320938E036093800370935B
:1015F000810380938203909383031F910F91FF9047
:10160000EF90DF90CF9008950F931F93CF93DF93C8
:10161000DC015596EC915597E23071F0E330E9F03A
:10162000E13079F5FB0114960D90BC91A02DA41B1F
:10163000B50BA21BB30B18C0EC01EC81FD81E61BBE
:10164000F70BBF0161507109EE81FF81DF01A41B1F
:10165000B50BAD01421B530B14C0DA01EC01EE8156
:10166000FF81E61BF70B3197F7FD0DC0EC014E81B2
:101670005F81E417F5073CF4AF01BD010E948A18B1
:1016800002C00E94201ADF91CF911F910F910895FF
:101690000F931F93DC015596EC915597E23061F062
:1016A000E33009F1E13081F51496ED91FC91159745
:1016B000E41BF50B319723C0DC011496ED91FC91EE
:1016C0001597DF01A61BB70BBD01DC011696ED9146
:1016D000FC911797DF01A41BB50BAD0141505109D7
:1016E000621B730B11C0FA01DC0116964D915C91DF
:1016F0001797DA01A61BB70BBD01621B730BAB0179
:10170000BF010E94201A0CC057FD0AC0DC011696CA
:10171000ED91FC9117974E175F0714F40E948A18F9
:101720001F910F910895AF92BF92CF92EF92FF92C7
:101730000F931F93CF93DF93EC01262F888D998D04
:10174000009709F040C06A3059F41D861C862C8928
:101750008E859F8538E0239F800D911D112441C007
:101760006D3009F4AAC08E898823C1F03C898C852C
:101770009D8546E0349F800D911D11244885598533
:10178000481759075CF41D861C868E859F8548E0A6
:10179000349F800D911D11249F878E87EA88FB88D6
:1017A000088919894E855F856C857D85CC88CE0139
:1017B0000E9470162C898C859D8536E0239F800DB4
:1017C000911D112442C06A3079F41D861C862C8933
:1017D000FC013696E4918E859F852E9F800D911D8C
:1017E00011249F878E8769C06D3009F466C0FC01A3
:1017F00034963491631708F460C03196E491E6178B
:1018000008F45BC0FC01329665917491422F50E060
:10181000431B510937E0349F5001359FB00C112410
:10182000A60EB71EF501329634913196E49133231A
:1018300011F0E1110DC0F5013496E4912C898C85ED
:101840009D85E29F800D911D11249D878C8735C059
:10185000F501359644915E89552311F16C89E32F8A
:10186000F0E0E40FF11D47FDFA956E9FD0016F9FE8
:10187000B00D11244C855D854A0F5B1FE885F98505
:10188000E417F5076CF41D861C86FC013696E4917E
:101890008E859F856E9F800D911D11249F878E8759
:1018A000EA88FB88088919894E855F856C857D8566
:1018B000CC88CE010E947016BECF81E090E0DF910F
:1018C000CF911F910F91FF90EF90CF90BF90AF906D
:1018D000089560E0C3C461E08BE0C0D489E090E08B
:1018E000F8DF88E090E0F5CF61E086E0B7D487E0EC
:1018F00090E0EFDF85E090E0ECCF08958EBD000032
:101900000DB407FEFDCF8EB508951F93CF93DF93DF
:10191000FC01848D958D009729F1162FEF0120A1F0
:1019200031E0309333042093550410923404109224
:101930005604DC01ED91FC910190F081E02D60E016
:1019400019958C8D9D8DDC01ED91FC910190F081BC
:10195000E02D612F19958C8D9D8DDF91CF911F9179
:101960000C94F118A4A5B5A59C9182A98095892312
:101970008C93828D938D892B29F0862FDF91CF91C7
:101980001F91BCCF28E030E080E8A0A5B1A590A9C8
:10199000462F482319F04C91942B03C04C919095FD
:1019A00094239C93A2A5B3A54C9191A9942B9C93AD
:1019B000A2A5B3A54C9191A9909594239C9386954B
:1019C0002150310911F7DF91CF911F9108958CBDFE
:1019D0009DBD08951F93CF93DF93EC01162F8C8D3F
:1019E0009D8D892BB1F02EA93FA948AD59AD60E07E
:1019F00074E284EF90E00E94D229DA01C901409795
:101A0000A109B109B695A795979587958093B800D8
:101A10000EC08A8D9B8D892B19F08CA99DA9D7DFCB
:101A2000EEA5FFA590818BA9809589238083111154
:101A300002C066EA01C067EACE0167DF8C8D9D8D2A
:101A4000892BB1F02AAD3BAD4CAD5DAD60E074E2E9
:101A500084EF90E00E94D229DA01C9014097A109E0
:101A6000B109B695A795979587958093B80006C05C
:101A7000EEA5FFA590818BA9892B8083DF91CF9163
:101A80001F910895CF93DF9300D000D0CDB7DEB77C
:101A900067E672E0CE0101964BD30E94001AE4EF94
:101AA000F4E01586148617861686BE016F5F7F4F99
:101AB000CF0152D30E94D51ACE01019634D3269677
:101AC0000FB6F894DEBF0FBECDBFDF91CF91089562
:101AD0002F923F924F925F926F927F928F929F923E
:101AE000AF92BF92CF92DF92EF92FF920F931F932C
:101AF000CF93DF93CDB7DEB768970FB6F894DEBF0C
:101B00000FBECDBF5C0110928F0310928E03109216
:101B1000910310929003662369F061E087E09ED301
:101B200085E090E0D6DE61E089E098D388E090E03F
:101B3000D0DE0CC087E090E0CCDE61E085E08ED3A3
:101B400089E090E0C6DE61E088E088D3609192038E
:101B50007091930386E03CD460919203709193035B
:101B60008BE036D419821A821B821C82B501BB0C11
:101B7000880B990B0E94B6274B015C016D837E8315
:101B80008F83988724D569877A878B879C871FD511
:101B90001D861E861F86188A898A9A8AAB8ABC8A05
:101BA000612C712CB30186E013D4B3018BE010D407
:101BB00061E070E080E090E0D2D48FEF681A780A9C
:101BC00098EC6916710471F7212C312C21012D8AB2
:101BD0003E8A4F8A588E0E94001A10920105109278
:101BE000000510920305109202056AE872E084EF86
:101BF00094E0C0D242E0C501B4010E94931C65E9A3
:101C000072E084EF94E0B6D242E06D897E898F89DC
:101C1000988D0E94931C60EA72E084EF94E0AAD24F
:101C200042E0C201B1010E94931C6BEA72E084EFB2
:101C300094E0A0D263EB72E084EF94E09BD20E9428
:101C4000D51A60918E0370918F03072E000C880BBC
:101C5000990B0E94B6272AE939E949E15FE30E941E
:101C600015286D8B7E8B8F8B988F60919003709170
:101C70009103072E000C880B990B0E94B6272AE9C6
:101C800039E949E15FE30E9415281B012C01CE01CF
:101C900009966C0104977C018E010F5F1F4F2D89FF
:101CA0003E894F89588DC501B4010E94E81D3C0151
:101CB000C60108967C01045F1F4FA2019101C50176
:101CC000B4010E94E81D8C0199E16916710454F079
:101CD000093111053CF0B30186E07AD3B8018BE0FD
:101CE00077D379CF01DEF7DDCDDE68960FB6F894B5
:101CF000DEBF0FBECDBFDF91CF911F910F91FF903F
:101D0000EF90DF90CF90BF90AF909F908F907F909B
:101D10006F905F904F903F902F900895CF92DF92F9
:101D2000EF92FF920F931F93CF93DF936C017A0191
:101D30008B01C0E0D0E0CE15DF0581F0D8016D91B8
:101D40008D01D601ED91FC910190F081E02DC6014D
:101D50001995892B11F02196EECF7E01C701DF91F5
:101D6000CF911F910F91FF90EF90DF90CF9008954A
:101D7000FC01538D448D252F30E0842F90E0821B91
:101D8000930B541710F0CF96089501970895FC0116
:101D9000918D828D981761F0828DDF01A80FB11DA2
:101DA0005D968C91928D9F5F9F73928F90E00895C6
:101DB0008FEF9FEF0895FC01918D828D981731F080
:101DC000828DE80FF11D858D90E008958FEF9FEFD4
:101DD0000895FC01918D228D892F90E0805C9F4FAA
:101DE000821B91098F739927089587E594E0F1DFAD
:101DF00021E0892B09F420E0822F0895FC01848DD5
:101E0000DF01A80FB11DA35ABF4F2C91848D90E024
:101E100001968F739927848FA689B7892C93A089FF
:101E2000B1898C91837080648C93938D848D981389
:101E300006C00288F389E02D80818F7D808308951C
:101E4000EF92FF920F931F93CF93DF93EC0181E00A
:101E5000888F9B8D8C8D981305C0E889F9898081C6
:101E600085FD25C0F62E0B8D10E00F5F1F4F0F7301
:101E70001127E02E8C8DE8120BC00FB607FCFACFAD
:101E8000E889F989808185FFF5CFCE01B7DFF2CFF0
:101E90008B8DFE01E80FF11DE35AFF4FF0829FB7D3
:101EA000F8940B8FEA89FB89808180620AC09FB712
:101EB000F894EE89FF896083E889F98980818370CD
:101EC000806480839FBF81E090E0DF91CF911F917C
:101ED0000F91FF90EF900895CF93DF93EC01888DE1
:101EE0008823C1F0EA89FB89808185FD05C0A88926
:101EF000B9898C9186FD0EC00FB607FCF5CF8081A5
:101F000085FFF2CFA889B9898C9185FFEDCFCE01ED
:101F100075DFE8CFDF91CF91089580E090E0892BC5
:101F200019F063DF811125C080E090E0892B41F03A
:101F300080E090E0892B21F00E94000081111CC0FC
:101F400080E090E0892B41F080E090E0892B21F047
:101F50000E940000811113C080E090E0892BA1F065
:101F600080E090E0892B81F00E94000081110AC07E
:101F700008950E940000D8CF0E940000E1CF0E9487
:101F80000000EACF0C94000008953FB7F8948091C8
:101F9000080490910904A0910A04B0910B0426B59D
:101FA000A89B05C02F3F19F00196A11DB11D3FBF91
:101FB000BA2FA92F982F8827820F911DA11DB11D1F
:101FC000BC01CD0142E0660F771F881F991F4A951B
:101FD000D1F70895089585ED8093BC008091BC00F1
:101FE00084FDFCCF109232040895089508950F9354
:101FF0001F93CF93DF93EC0188819981009729F09B
:102000002A813B812617370788F48B016F5F7F4F4A
:102010000E941D2B009761F0998388831B830A839C
:102020002C813D81232B11F4FC01108281E001C041
:1020300080E0DF91CF911F910F910895EF92FF9271
:102040000F931F93CF93DF936115710511F480E017
:102050001BC041155105B9F07B01EC018C819D81BC
:102060008A01080F191FB801CE01C1DF882379F357
:10207000288139818C819D81B701820F931F0E9435
:102080000D2C1D830C8381E0DF91CF911F910F9167
:10209000FF90EF900895CF93DF93EC0188819981B1
:1020A000009711F00E94942A198218821D821C82C6
:1020B0001B821A82DF91CF910895CF93DF93EC01B9
:1020C0006115710559F0FB0101900020E9F7319786
:1020D000AF01461B570BB2DF811102C0CE01DBDF1F
:1020E000CE01DF91CF910895EF92FF920F931F934E
:1020F000CF93DF93EC017B018A01BA0178DF811174
:1021000003C0CE01C8DF07C01D830C83B7018881DF
:1021100099810E940D2CCE01DF91CF911F910F91DB
:10212000FF90EF900895FC01808191810C94942A96
:10213000FC011182108213821282158214826115B1
:10214000710549F0FB0101900020E9F73197AF01DB
:10215000461B570BC9CF0895DB0114964D915C9136
:1021600015976D917C91DC01ED91FC910280F381DA
:10217000E02D19946115710579F0FB0101900020A3
:10218000E9F73197AF01461B570BDC01ED91FC914C
:102190000280F381E02D199480E090E008951F9271
:1021A0000F920FB60F9211240BB60F922F933F93FD
:1021B0004F935F936F937F938F939F93AF93BF934F
:1021C000EF93FF9387E594E019DEFF91EF91BF91C4
:1021D000AF919F918F917F916F915F914F913F91BF
:1021E0002F910F900BBE0F900FBE0F901F90189560
:1021F0001F920F920FB60F9211240BB60F922F93CE
:102200008F939F93EF93FF93E0916704F09168049D
:102210008081E0916D04F0916E0482FD12C0908186
:10222000809170048F5F8F7320917104821751F039
:10223000E0917004F0E0E95AFB4F958F80937004B1
:1022400001C08081FF91EF919F918F912F910F900D
:102250000BBE0F900FBE0F901F901895362F90E079
:10226000FC01E255F84F4491FC01E859FD4F2491DF
:10227000FC01E853FD4F9491992309F46CC0442369
:1022800009F455C050E0FA013197E231F10508F048
:102290004EC08827EE58FF4F8F4F0C94F429809141
:1022A00080008F7707C0809180008F7D03C0809170
:1022B0008000877F809380003AC084B58F7702C00A
:1022C00084B58F7D84BD33C08091B0008F7703C00B
:1022D0008091B0008F7D8093B00029C080919000E4
:1022E0008F7707C0809190008F7D03C08091900010
:1022F000877F809390001BC08091A0008F7707C0DC
:102300008091A0008F7D03C08091A000877F809383
:10231000A0000DC0809120018F7707C0809120011F
:102320008F7D03C080912001877F80932001E92F5A
:10233000F0E0EE0FFF1FE255FD4FA591B4919FB75E
:10234000F894311104C08C912095282302C0EC919F
:102350002E2B2C939FBF0895CF93DF9390E0FC0129
:10236000E859FD4F2491FC01E853FD4F84918823E7
:1023700061F190E0880F991FFC01EE5CFD4FC59163
:10238000D491FC01E255FD4FA591B491611109C0B2
:102390009FB7F8948881209582238883EC912E231F
:1023A0000BC0623061F49FB7F8948881322F30956A
:1023B00083238883EC912E2B2C939FBF06C08FB76D
:1023C000F894E8812E2B28838FBFDF91CF91089559
:1023D0001F93CF93DF93182FEB0161E0BDDF2097B0
:1023E00011F460E004C0CF3FD10531F461E0812FEA
:1023F000DF91CF911F9132CFE12FF0E0E255F84FFE
:10240000E4918E2F90E0FC013197E231F10508F064
:102410009DC08827EC57FF4F8F4F0C94F42984B54B
:10242000806884BDC7BD97C084B5806284BDC8BDC7
:1024300092C080918000806880938000D093890052
:10244000C093880088C08091800080628093800063
:10245000D0938B00C0938A007EC0809180008860FA
:1024600080938000D0938D00C0938C0074C08091C5
:10247000B00080688093B000C093B3006CC08091BE
:10248000B00080628093B000C093B40064C08091BB
:102490009000806880939000D0939900C09398003A
:1024A0005AC080919000806280939000D0939B00EE
:1024B000C0939A0050C080919000886080939000F3
:1024C000D0939D00C0939C0046C08091A00080687E
:1024D0008093A0008091A0008F7B8093A000D09378
:1024E000A900C093A80037C08091A00080628093AB
:1024F000A000D093AB00C093AA002DC08091A00093
:1025000088608093A000D093AD00C093AC0023C03E
:1025100080912001806880932001D0932901C0938D
:10252000280119C080912001806280932001D093FE
:102530002B01C0932A010FC08091200188608093F5
:102540002001D0932D01C0932C0105C0C038D105C6
:102550000CF04CCF46CFDF91CF911F9108958F9211
:102560009F92AF92BF92CF92DF92EF92FF926B0158
:102570007C010BDD4B015C01C114D104E104F104C9
:10258000E9F003DDDC01CB0188199909AA09BB092F
:10259000883E9340A105B10578F321E0C21AD10825
:1025A000E108F10888EE880E83E0981EA11CB11C9A
:1025B000C114D104E104F10421F7DECFFF90EF90C4
:1025C000DF90CF90BF90AF909F908F9008952FB7DE
:1025D000F894609104047091050480910604909130
:1025E00007042FBF08951F920F920FB60F92112468
:1025F0002F933F938F939F93AF93BF938091040446
:1026000090910504A0910604B09107043091030451
:1026100023E0230F2D3720F40196A11DB11D05C025
:1026200026E8230F0296A11DB11D20930304809379
:10263000040490930504A0930604B09307048091CA
:10264000080490910904A0910A04B0910B0401962A
:10265000A11DB11D8093080490930904A0930A045E
:10266000B0930B04BF91AF919F918F913F912F91A8
:102670000F900FBE0F901F9018951F920F920FB6DC
:102680000F9211240BB60F922F933F934F935F93AA
:102690006F937F938F939F93AF93BF93EF93FF932A
:1026A000E0910E02F0910F021995FF91EF91BF9109
:1026B000AF919F918F917F916F915F914F913F91DA
:1026C0002F910F900BBE0F900FBE0F901F9018957B
:1026D0001F920F920FB60F9211240BB60F922F93E9
:1026E0003F934F935F936F937F938F939F93AF939A
:1026F000BF93EF93FF93E0910C02F0910D021995B7
:10270000FF91EF91BF91AF919F918F917F916F91C9
:102710005F914F913F912F910F900BBE0F900FBE85
:102720000F901F9018951F920F920FB60F921124C1
:102730000BB60F922F933F934F935F936F937F93BB
:102740008F939F93AF93BF93EF93FF93E091020218
:10275000F09103021995FF91EF91BF91AF919F9175
:102760008F917F916F915F914F913F912F910F903A
:102770000BBE0F900FBE0F901F9018951F920F92D7
:102780000FB60F9211240BB60F922F933F934F93D6
:102790005F936F937F938F939F93AF93BF93EF93C9
:1027A000FF93E0910002F09101021995FF91EF91E2
:1027B000BF91AF919F918F917F916F915F914F9159
:1027C0003F912F910F900BBE0F900FBE0F901F9057
:1027D00018951F920F920FB60F9211240BB60F92FD
:1027E0002F933F934F935F936F937F938F939F9319
:1027F000AF93BF93EF93FF93E0910A02F0910B0226
:102800001995FF91EF91BF91AF919F918F917F911A
:102810006F915F914F913F912F910F900BBE0F9051
:102820000FBE0F901F9018951F920F920FB60F9228
:1028300011240BB60F922F933F934F935F936F9397
:102840007F938F939F93AF93BF93EF93FF93E09109
:102850000802F09109021995FF91EF91BF91AF9194
:102860009F918F917F916F915F914F913F912F91A8
:102870000F900BBE0F900FBE0F901F9018951F92D8
:102880000F920FB60F9211240BB60F922F933F9316
:102890004F935F936F937F938F939F93AF93BF9368
:1028A000EF93FF93E0910602F09107021995FF91D3
:1028B000EF91BF91AF919F918F917F916F915F91B8
:1028C0004F913F912F910F900BBE0F900FBE0F9025
:1028D0001F9018951F920F920FB60F9211240BB6EE
:1028E0000F922F933F934F935F936F937F938F93A9
:1028F0009F93AF93BF93EF93FF93E0910402F09106
:1029000005021995FF91EF91BF91AF919F918F9122
:102910007F916F915F914F913F912F910F900BBEDF
:102920000F900FBE0F901F9018951F920F920FB629
:102930000F9211240BB60F922F933F934F935F93F7
:102940006F937F938F939F93AF93BF93EF93FF9377
:102950008091B900887F803609F49CC068F5883280
:1029600009F45BC090F4803109F454C038F4882332
:1029700009F4F6C0883009F44DC0F5C0883109F477
:102980004CC0803209F45DC0EEC0803409F468C0E8
:1029900048F4803309F455C0883309F0E4C08093CB
:1029A0003004D8C0803509F44FC0883509F45DC0C3
:1029B000883409F0D8C0D6C0883909F4C7C0A8F453
:1029C000883709F467C038F4883609F463C0803763
:1029D00009F460C0C8C0883809F4B8C0803909F467
:1029E0005FC0803809F0BFC05BC0803B09F486C07F
:1029F00038F4803A09F466C0883A09F47FC0B3C05D
:102A0000803C09F4A7C0883C09F4A4C0883B09F4C1
:102A10008AC0A9C080910D0410C090912F048091AC
:102A20002E04981770F5E0912F0481E08E0F8093AB
:102A30002F04F0E0E25FFB4F80818093BB0085ECC8
:102A400086C0809330048EC0E0912F0481E08E0F09
:102A500080932F048091BB00F0E0E25FFB4F808306
:102A600090912F0480912E046EC0E0912F0481E09C
:102A70008E0F80932F048091BB00F0E0E25FFB4F4C
:102A800080838091310481116DC081E080930C04BA
:102A900084EA61C083E08093320410920204CFCFB5
:102AA00080910204803208F051C0E091020481E07C
:102AB0008E0F809302048091BB00F0E0EE51FC4F3A
:102AC0008083BDCF85EC8093BC001092320480914E
:102AD0000204803230F4E0910204F0E0EE51FC4F49
:102AE00010826091020470E0E0918803F091890304
:102AF00082EE93E019951092020435C084E0809331
:102B000032041092E1031092E003E0918A03F09105
:102B10008B0319958091E003811105C081E08093BA
:102B2000E0031092C003E091E10381E08E0F8093F7
:102B3000E103F0E0E054FC4F80818093BB00909172
:102B4000E1038091E003981708F479CF85E880933A
:102B5000BC0009C085EC8093BC001092320403C015
:102B60001092300438DAFF91EF91BF91AF919F91AD
:102B70008F917F916F915F914F913F912F910F9026
:102B80000BBE0F900FBE0F901F9018954091E00361
:102B9000262F30E0240F311D21323105DCF4209145
:102BA00032042430C9F4FC0180E090E0861758F428
:102BB0003091E0032191DC01A054BC4FA30FB11D63
:102BC0002C930196F3CF8091E003680F6093E003AC
:102BD00080E0089581E0089582E008953F924F9249
:102BE0005F926F927F928F929F92AF92BF92CF929D
:102BF000DF92EF92FF920F931F93CF93DF9300D05A
:102C000000D0CDB7DEB72C013B014A015901C90103
:102C1000079697FD07969C0193E0359527959A9521
:102C2000E1F73C832B83C12CD12CE12CF12C312CEE
:102C3000C3018E0D9F1D9A838983E016F106C4F5AA
:102C40001E821D822D813E812A153B054CF5C9014E
:102C500087709927892B11F0330C0EC0ED81FE810E
:102C6000F7FD379683E0F595E7958A95E1F7EC0D4A
:102C7000FD1DE80DF91D349037FE0CC021E030E059
:102C800049815A816D817E81640D751D84EF94E0C8
:102C90000E9480098D819E8101969E838D83D2CF73
:102CA0009FEFE91AF90A2B813C81C20ED31EC0CFD7
:102CB00026960FB6F894DEBF0FBECDBFDF91CF9141
:102CC0001F910F91FF90EF90DF90CF90BF90AF904A
:102CD0009F908F907F906F905F904F903F9008955E
:102CE0002F923F924F925F926F927F928F929F921C
:102CF000AF92BF92CF92DF92EF92FF920F931F930A
:102D0000CF93DF93CDB7DEB76B970FB6F894DEBFE6
:102D10000FBECDBF9B8F8A8F5B011A01D22E1F83FE
:102D20000E833701C982DC0158962D913C91599749
:102D30002115310509F0E6C018968D919C911997DF
:102D4000681779070CF0CDC11A968D919C911B974D
:102D5000481759070CF0C5C18C2C912CFB0126E0BB
:102D6000C29EE00DF11D1124FB87EA871E161F0687
:102D70000CF0B7C1A40183E0440F551F8A95E1F719
:102D80005D874C87CA01820D931D181619060CF039
:102D9000A8C157968C91811104C05FEA5D1508F4B3
:102DA000D394AA8DBB8DED91FC9111970284F3858C
:102DB000E02DCD011995B5E0DB9EC0011124F50190
:102DC0003596FF87EE87BB82AA8225019C012A19CE
:102DD0003B09398B288BA101485F5F4F5B8B4A8B86
:102DE000E889F989E40DF51DE75FF74F549158879D
:102DF00061013D822C82888580FF13C0AA8DBB8D26
:102E0000ED91FC91B981B13031F40484F585E02D68
:102E10002E813F8116C00684F785E02DEE80FF806D
:102E20001AC0EE81FF81E615F705F1F0AA8DBB8D82
:102E3000ED91FC91B981B13051F40484F585E02D18
:102E40009301A601B2018A8D9B8D19950DC0068450
:102E5000F785E02D7301840194014C815D816A81C5
:102E60007B818A8D9B8D1995E885E695E887FFEF34
:102E7000CF1ADF0A2C813D81280D391D3D832C831B
:102E80004A895B89C416D50609F0B5CF5FEF451AAC
:102E9000550A8A819B81880D991D9B838A83AE8503
:102EA000BF854A165B0609F09BCFEE81FF81E615D0
:102EB000F70509F4F4C0EA8DFB8DA081B181F98199
:102EC000F13079F4B5016B5F7F4F5096ED91FC9135
:102ED0005197830128E030E0A1018A8D9B8D1995DF
:102EE000DEC06A857B85681979091E96ED91FC9193
:102EF0001F9773010C851D859401A1018A8D9B8DFF
:102F00001995CDC0F9013496E491DE1AF901329693
:102F100085919491B7E0DB9E800D911D1124F901FC
:102F2000259134913B8B2A8BFC0125913491290109
:102F3000FC013296C490319634913E8732961491BA
:102F40003196D4904981423058F0612E012E000C08
:102F500077088D2D0D2C000C990B9987888704C05C
:102F600019861886612C712CAA8DBB8DED91FC9170
:102F700011970284F385E02DCD011995B9818B2E2F
:102F8000912C689CC001699C900D789C900D112437
:102F9000FC01EA0DFB1DFD87EC871A82712C612C68
:102FA000E12F110FFF0B95012E0F3F1F3B872A8743
:102FB000AC0CB11CA5014E0F5F1F5F8B4E8BC10186
:102FC0008D0D911DD7FC9A95998F888F9E856916D6
:102FD00008F065C0862D90E048855985480F591F37
:102FE000489D9001499D300D589D300D1124D1010F
:102FF000A20FB31FB98BA88BEC85FD85FD83EC83F5
:10300000AA84BB84DA80FA85DF1A288D398D280FCF
:10301000391F3D8B2C8B8D2D8A0D4E895F89A4160F
:10302000B506C1F1877041F4C2010196EA89FB89B6
:10303000E40DF51D74902C0177FE21C0AA8DBB8D87
:10304000ED91FC91B981B13061F40484F585E02DF6
:103050002E813F814C895D89B5018A8D9B8D1995A3
:103060000EC00684F785E02DEE80FF808401940178
:10307000488959896C817D818A8D9B8D1995770C42
:10308000EFEFAE1ABE0A2C813D81280D391D3D831C
:103090002C83C1CF3A813C0D3A83639497CFAA8D9C
:1030A000BB8DED91FC9111970688F789E02DCD013C
:1030B0006B960FB6F894DEBF0FBECDBFDF91CF91F8
:1030C0001F910F91FF90EF90DF90CF90BF90AF9046
:1030D0009F908F907F906F905F904F903F902F9038
:1030E00019946B960FB6F894DEBF0FBECDBFDF917B
:1030F000CF911F910F91FF90EF90DF90CF90BF90F5
:10310000AF909F908F907F906F905F904F903F9087
:103110002F9008950F931F93CF93DF9377FF04C0F1
:10312000260F371F60E070E0DC011496CD91DC9132
:103130001597FB01E20FF31FCE17DF071CF49E016A
:10314000261B370B121613060CF046C0FA0157FD6A
:103150003796DF01E3E0B595A795EA95E1F7AC9FD7
:10316000F001AD9FF00DBC9FF00D11246E0F7F1F7D
:10317000DC015E96ED91FC915F97E60FF71F4770BB
:10318000552781E090E001C0880F4A95EAF7482F63
:103190000130110539F078F002301105E9F42E0FF5
:1031A0003F1F13C02E0F3F1FE217F307A9F08081C6
:1031B000842B8193F9CF80952E0F3F1FE217F307E1
:1031C00059F0908198239193F9CFE217F30721F0FA
:1031D000808184278193F9CFDF91CF911F910F9147
:1031E000089530915604313208F04BC0809132047A
:1031F0008111FCCF9091550422E02093320421E00C
:10320000209331042FEF2093300410922F04309339
:103210002E04E5E3F4E0AEE0B4E020E0321721F064
:1032200041914D932F5FFACF10920D0420910D0420
:10323000990F922B90930D0490910C04913061F4AE
:1032400010920C0490910D049093BB009091BC00DF
:1032500093FDF8CF95EC01C095EE9093BC00909152
:1032600032049230E1F3909130049F3F79F08091E5
:103270003004803241F080913004803331F084E0BA
:1032800005C081E003C082E001C083E010923404F5
:1032900010925604109233040895DF92EF92FF9239
:1032A0000F931F93CF93DF93D82ED92FC62F8091E2
:1032B000100590911105009709F452C02091140552
:1032C00031E030933304209355041092340410926B
:1032D0005604DC01ED91FC910190F081E02D60E05D
:1032E0001995ED2CFD2E11E0D1E080911005909103
:1032F0001105CC2369F11032C0F073DF8091140501
:10330000D0933304809355041092340410925604E1
:103310008091100590911105DC01ED91FC910190D7
:10332000F081E02D60E0199511E0809110059091F9
:103330001105F7016491DC01ED91FC910190F081A0
:10334000E02D19951F5FC150BFEFEB1AFB0ACDCFDF
:10335000DF91CF911F910F91FF90EF90DF9041CFC0
:10336000E0912005F09121059081809126058095BE
:10337000892380830D2D1D2FCC2309F439C0F8013A
:10338000849120910E0530910F05232B31F00E947E
:103390007E0CC1500F5F1F4FEFCF28E030E040E8B8
:1033A000E0911C05F0911D0590912405582F5423A0
:1033B00019F05081952B03C05081909595239083EF
:1033C000E0911E05F0911F05508190912505952BE8
:1033D0009083E0911E05F0911F0550819091250585
:1033E000909595239083469521503109C9F6D1CF08
:1033F000DF91CF911F910F91FF90EF90DF90089593
:103400002091FA043091FB04C901079697FD0796B5
:1034100023E0959587952A95E1F72091F80430915E
:10342000F904829FA001839F500D929F500D11249B
:1034300060E070E080911205909113050C94062CC9
:10344000EF92FF920F931F93CF93DF93EC0177FDE1
:10345000A5C0EC80FD806E157F050CF09FC057FF66
:1034600004C0240F351F40E050E08E819F81FA0197
:10347000E20FF31F8E179F071CF49C01241B350BD2
:10348000121613060CF08AC0922F842F869586950B
:1034900086958E9DD0018F9DB00D11246A0F7B1FE4
:1034A000AE8DBF8DA60FB71F4770B1F188E0841BAA
:1034B000482F682F70E0FB01EF5FF74FE49128176A
:1034C00098F4621B71092FEF30E002C03595279503
:1034D0006A95E2F7E2230130110549F078F00230F5
:1034E000110509F05BC00EC00130110519F48C9173
:1034F000E82B0AC00130110508F049C0E0958C9115
:10350000E82302C08C91E827EC93941708F446C096
:103510002C813D81A20FB31FE92FE41BE830F8F0A6
:103520000230110561F48E2F9C9190959C932C8113
:103530003D81A20FB31F88508830B0F70FC081E0E3
:103540000115110509F480E081959E2F8C932C8143
:103550003D81A20FB31F98509830C0F7E770EE235B
:10356000E9F0F0E0E750F84FE4910130110539F04F
:1035700048F00230110591F48C91E82706C08C9137
:10358000E82B03C0E0958C91E823EC9307C0023050
:10359000110509F4B7CFAE0DBF1DBECFDF91CF919E
:1035A0001F910F91FF90EF900895EF92FF920F936C
:1035B0001F93CF93DF938091100590911105892B74
:1035C000D1F020912A0530912B0540912C05509186
:1035D0002D0560E074E284EF90E00E94D229DA01C8
:1035E000C9014097A109B109B695A7959795879507
:1035F0008093B80016C080910E0590910F05892B1D
:1036000031F080912805909129050E94E70CE09106
:103610002205F091230590818091270580958923CB
:10362000808365E084EF97E038DE6091F8046150B4
:1036300084EF94E00E94850C2091FA043091FB0401
:10364000C901079697FD079633E0959587953A95BA
:10365000E1F72091F8043091F904829F8001839F63
:10366000100D929F100D1124C0911205D0911305D9
:1036700080911005909111050C0F1D1F009709F402
:103680004AC02091140531E030933304209355044F
:103690001092340410925604DC01ED91FC910190DB
:1036A000F081E02D60E41995FF24F394EE24E39477
:1036B00080911005909111050C171D0751F1BFE184
:1036C000BF15C8F48EDD80911405E0923304809319
:1036D0005504109234041092560480911005909174
:1036E0001105DC01ED91FC910190F081E02D60E489
:1036F0001995FF24F394809110059091110569911B
:10370000DC01ED91FC910190F081E02D1995F3948D
:10371000CFCF67DD41C0E0912005F0912105908178
:1037200080912605892B80830C171D07A9F18991AB
:1037300020910E0530910F05232B19F00E947E0C6D
:10374000F3CF28E030E040E8E0911C05F0911D0542
:1037500090912405582F542319F05081952B03C0C4
:103760005081909595239083E0911E05F0911F055F
:10377000508190912505952B9083E0911E05F09145
:103780001F0550819091250590959523908346952E
:1037900021503109C9F6C8CF8091100590911105CB
:1037A000892BD1F020912E0530912F0540913005C5
:1037B0005091310560E074E284EF90E00E94D229DC
:1037C000DA01C9014097A109B109B695A795979566
:1037D00087958093B80017C0E0912205F0912305EA
:1037E000908180912705892B808380910E0590918F
:1037F0000F05892B41F0DF91CF911F910F91FF9021
:10380000EF900C947D0CDF91CF911F910F91FF9061
:10381000EF900895CF93DF93EC01FB014481558134
:10382000608171810E941E10811103C0CE010E942F
:103830004B10CE01DF91CF910895EF92FF920F933D
:103840001F93CF93DF93CDB7DEB762970FB6F8948F
:10385000DEBF0FBECDBF8C01CB01F80111821082FB
:1038600013821282158214824AE09E012F5F3F4F1D
:103870007901B9010E942725F70101900020E9F79D
:103880003197AF014E195F09B701C8010E9474104A
:1038900062960FB6F894DEBF0FBECDBFDF91CF9119
:1038A0001F910F91FF90EF900895EF92FF920F9369
:1038B0001F93CF93DF93CDB7DEB7A1970FB6F894E0
:1038C000DEBF0FBECDBF7C01CB01BA01F701118273
:1038D000108213821282158214828E010F5F1F4F95
:1038E00022E044E00E940825009769F0FC01019065
:1038F0000020E9F73197AF01481B590BBC01C70104
:103900000E94741003C0C7010E944B10A1960FB60D
:10391000F894DEBF0FBECDBFDF91CF911F910F9105
:10392000FF90EF9008952F923F924F925F926F9287
:103930007F928F929F92AF92BF92CF92DF92EF923F
:10394000FF920F931F93CF93DF93CDB7DEB7A4976A
:103950000FB6F894DEBF0FBECDBF4B015C01F42E55
:103960009B01AC010E94CE29882319F069E173E024
:1039700027C024013501E89477F82FEF3FEF4FE798
:103980005FE7C301B2010E94CE2981110DC02FEF64
:103990003FEF4FE75FE7C301B2010E94B02718165F
:1039A0001CF46DE173E00CC02FEF3FEF4FE75FE4D5
:1039B000C501B4010E94CA2918163CF461E273E003
:1039C00084EF94E00E94BA10BCC02FEF3FEF4FE7A6
:1039D0005FECC501B4010E94B02787FDEFCF20E066
:1039E00030E0A901C501B4010E94B02787FF0BC0D8
:1039F0006DE284EF94E00E94930B3C01B7FAB0941F
:103A0000B7F8B09402C0612C712C10E060E070E057
:103A100080E09FE3F11641F020E030E040E251E425
:103A20000E9431291F5FF6CFA50194010E94CD2885
:103A30004B015C010E949E296AA3C72ED82EE92E55
:103A400019A2262F372F482F592F8E010F5D1F4F98
:103A50000BA31CA39AE0292E312C412C512CCA0116
:103A6000B901A20191010E94D229605DF80162931F
:103A70008F01211531054105510589F7BF0184EFFB
:103A800094E00E94BA108301080F191FFF2009F467
:103A900057C06AA17C2D8D2D9E2D0E94B4279B01BD
:103AA000AC01C501B4010E94CC284B015C016EE25F
:103AB00084EF94E00E94930B080F191F8AE0282ED0
:103AC000312C412C512C20E030E040E251E4C50182
:103AD000B4010E9415284B015C010E949E299B01A4
:103AE00040E050E019A2CBA0DCA0762E3AA3642ED1
:103AF000E52ECA01B901A20191010E94D229605D9F
:103B0000F60162936F01211531054105510589F7D1
:103B1000BF0184EF94E00E94BA10080F191F672DAF
:103B20007AA1862D9E2D0E94B4279B01AC01C50170
:103B3000B4010E94CC284B015C01FA94F110C3CF70
:103B4000C801A4960FB6F894DEBF0FBECDBFDF91BB
:103B5000CF911F910F91FF90EF90DF90CF90BF908A
:103B6000AF909F908F907F906F905F904F903F901D
:103B70002F9008950F931F93CF93DF93C82FD62FC5
:103B80008A013EDC10920105109200051092030597
:103B90001092020565E273E084EF94E00E94BA108F
:103BA00060EE6C0F84EF94E00E94930BD11106C07D
:103BB00061E473E084EF94E00E94BA10B80184EFEE
:103BC00094E00E94AC10DF91CF911F910F91EDCC4A
:103BD0002F923F924F925F926F927F928F929F921D
:103BE000AF92BF92CF92DF92EF92FF920F931F930B
:103BF000CF93DF93CDB7DEB7AA970FB6F894DEBFA9
:103C00000FBECDBF1701DEA2CDA20E94CC286B0152
:103C10007C019B01AC01F101608171818281938102
:103C20000E94CC282B013C010E94E712F101C082C6
:103C3000D182E282F382F801208131814281538175
:103C4000C701B6010E94CD284B015C01F8016083D9
:103C50007183828393832EEA37E441EC5FE3C701EB
:103C6000B6010E9415286FA378A789A79AA72AE012
:103C700037ED43E25CE3C501B4010E9415289B01C6
:103C8000AC016FA178A589A59AA50E94CD284B010A
:103C90005C012EEA37E441EC5FE3C301B2010E940C
:103CA00015289B01AC01C501B4010E94CD280E94DA
:103CB00099294B015C01CE010196BFDDF8014081DD
:103CC000518162817381CE010796EFDDF101408160
:103CD000518162817381CE010D96E7DDB301A201AE
:103CE000CE014396E2DDC701B6010E949929CE01BB
:103CF0004996A3DD64E573E0CE014F960E949810CB
:103D0000BE01675E7F4FCE014F9684DD6BE573E0A9
:103D10000E945D10BE016D5E7F4F7CDD65E673E045
:103D20000E945D10BE01635F7F4F74DD60E773E04A
:103D30000E945D10BE01695F7F4F6CDD66E773E036
:103D40000E945D10BE016F5F7F4F64DDBC0187E59F
:103D500094E00E94AC106DE773E087E594E00E9468
:103D6000BA10CE014F960E949310CE0149960E9440
:103D70009310CE0143960E949310CE010D960E949F
:103D80009310CE0107960E949310CE0101960E94D7
:103D900093100E94E712EDA1FEA1608371838283DC
:103DA0009383C4018F3F910519F014F08FEF90E0D9
:103DB000AA960FB6F894DEBF0FBECDBFDF91CF91AC
:103DC0001F910F91FF90EF90DF90CF90BF90AF9039
:103DD0009F908F907F906F905F904F903F902F902B
:103DE0000895CF93DF93CDB7DEB7A5970FB6F894BC
:103DF000DEBF0FBECDBF789484B5826084BD84B52C
:103E0000816084BD85B5826085BD85B5816085BDD5
:103E100080916E00816080936E001092810080918D
:103E20008100826080938100809181008160809315
:103E30008100809180008160809380008091B1003A
:103E400084608093B1008091B00081608093B00065
:103E500080919100826080939100809191008160B7
:103E60008093910080919000816080939000809178
:103E7000A10082608093A1008091A1008160809365
:103E8000A1008091A00081608093A0008091210119
:103E900082608093210180912101816080932101C2
:103EA0008091200181608093200180917A0084605C
:103EB00080937A0080917A00826080937A0080916A
:103EC0007A00816080937A0080917A008068809384
:103ED0007A001092C100E0916704F091680482E0DA
:103EE0008083E0916304F09164041082E0916504A2
:103EF000F091660480E1808310926F04E0916B047E
:103F0000F0916C0486E08083E0916904F0916A048A
:103F1000808180618083E0916904F0916A048081EE
:103F200088608083E0916904F0916A0480818068F0
:103F30008083E0916904F0916A0480818F7D8083A1
:103F400061E087E00E94AC1161E085E00E94AC1165
:103F500061E089E00E94AC1161E088E00E94AC1150
:103F600061E086E00E94AC1161E08BE00E94AC1140
:103F700060E082E00E94AC1160E083E00E94AC113E
:103F800060E08CE30E94AC1160E070E086E00E948B
:103F9000E81160E070E08BE00E94E8118EEC9AE09E
:103FA000909301028093000280916A008C7F81606F
:103FB00080936A00EC9A88E99AE0909303028093D8
:103FC000020280916A00837F846080936A00ED9A88
:103FD0006CEB72E0CE0101960E9498108091120560
:103FE00090911305892B11F52091FA043091FB046F
:103FF000C901079697FD079623E0959587952A9521
:10400000E1F72091F8043091F904AC01429FC0011E
:10401000439F900D529F900D11240E94FC29909374
:10402000130580931205892B09F40AC1E9D920915F
:10403000FA043091FB048091F8049091F904213244
:1040400031050CF424C3B9016054710977FF02C033
:104050006F5F7F4F759567958255910997FD019622
:1040600000E410E022E530E04EEE54E095958795AF
:104070000E94EE1582E080931505809110059091C5
:104080001105892B09F417C38CE380931405109252
:104090008D0310928C0310923404109256041092E7
:1040A000320481E08093310410920C0461E084E1D9
:1040B0000E942E1161E085E10E942E118091B900CD
:1040C0008E7F8093B9008091B9008D7F8093B90075
:1040D00088E48093B80085E48093BC0085EF9FE07E
:1040E00090938B0380938A0386EF9FE090938903DC
:1040F0008093880380911B0587FD1EC061E00E94AC
:10410000AC1161E080911B050E942E1161E070E00E
:1041100080E090E00E94AF1260E080911B050E9459
:104120002E116AE070E080E090E00E94AF1261E042
:1041300080911B050E942E11809110059091110510
:10414000892B09F477C320912A0530912B054091E2
:104150002C0550912D0560E074E284EF90E00E9400
:10416000D229DA01C9014097A109B109B695A795ED
:10417000979587958093B80064E084E692E08DD8A7
:104180006091FA04615084EF94E00E94850C64E031
:1041900080E692E082D880911505813009F461C3F0
:1041A00064E184EF94E00E94850C64E08CE592E089
:1041B00074D88091F8049091F9048038910509F041
:1041C00063C38091FA049091FB048032910509F059
:1041D0004AC364E088E592E060D869ED84EF94E03A
:1041E0000E94850C80911505813009F469C361EF47
:1041F00084EF94E00E94850C66E08CE492E04DD858
:104200008091100590911105892B09F45BC32091D1
:104210002E0530912F05409130055091310560E019
:1042200074E284EF90E00E94D229DA01C90140973C
:10423000A109B109B695A795979587958093B80080
:10424000B4D9DED881E08093080581E090E09093B6
:1042500007058093060590930505809304050E9449
:10426000420DCE0101960E9493103E015FE1650E62
:10427000711C87E594E00E94E90E04970CF404C2D7
:1042800009E913E00E94E71260935F0470936004F1
:10429000809361049093620487E594E00E94C70EC6
:1042A00097FF23C30E94E712C0905F04D090600480
:1042B000E0906104F0906204DC01CB018C199D094F
:1042C000AE09BF09C0905B04D0905C04E0905D042F
:1042D000F0905E048C159D05AE05BF05E8F287E5FC
:1042E00094E00E946C0F8091990380939D038091CC
:1042F0009A038093950380919B038093960380910A
:104300009C0380939703109298038EE993E09F9308
:104310008F9343EE52E05F934F93E5E9F3E0FF9311
:10432000EF930E94142C60919E0370919F03CE0125
:10433000079683DA65E073E0CE0101960E9498103B
:10434000BE01695F7F4FCE01019664DA18A21F8E0D
:104350001AA219A21CA21BA20F900F900F900F90EF
:104360000F900F908615970559F0FC0160817181BF
:104370006115710529F044815581C3010E947410B3
:10438000CE0101960E949310CE0107960E949310D1
:1043900080919D038237F9F03CF48236A1F08D368E
:1043A00009F04EC161E010C0833709F443C186377C
:1043B00009F046C180919E0390919F0390939303CF
:1043C000809392033BC160E080919E0390919F0394
:1043D0000E94680D33C1C0909E03D0909F0310923D
:1043E00091031092900310928F0310928E03460156
:1043F0000D2C000CAA08BB081C141D040CF03CC0BA
:10440000C501B401B3D51B012C0120E030E040EA26
:1044100053E4A6D5181684F161E089E00E942E11BC
:1044200088E090E00E94690C87E090E00E94690CAF
:1044300061E085E00E942E11A201910160E070E030
:1044400080EA93E4A9D620E030E040EA53E409D7BB
:1044500020E030E04AE253E4E8D56BD77B01F2E399
:10446000EF0EF11CB7018BE00E94E81160E070E0F4
:1044700086E00E94E81153C0C501B40177D54B0115
:104480005C0120E030E040EA53E484D718160CF0D9
:1044900040C020E030E040E254E4C501B40160D502
:1044A0001816BCF161E087E00E942E1185E090E0D3
:1044B0000E94690C89E090E00E94690C61E088E04C
:1044C0000E942E1120E030E040EA53E4C501B4011F
:1044D00063D62FD7072E000C880B990B47D520E009
:1044E00030E040EA53E4BDD620E030E04AE253E455
:1044F0009CD51FD78B010E5C1F4FB80186E00E9430
:10450000E81160E070E08BE00E94E811E12CF12CF2
:1045100008C00E94740C0E946B0CE12CF12C00E08E
:1045200010E00E94001A10920105109200051092EE
:104530000305109202056CE773E0CE0149960E94D4
:1045400098100E151F0524F0B80129E12DA303C012
:10455000B70148E14DA3072E000C880B990B06D537
:1045600020E030E044E351E47CD6E3D64B01A12CBB
:10457000B12CA814B90484F45DA159831A8241E0D6
:1045800050E0BE016F5F7F4FCE0149960E941E1022
:104590008FEFA81AB80AEDCFB701CE0101964DD919
:1045A000B801CE01079649D9B601CE010D9645D97D
:1045B00066EE72E0CE0143960E949810BE01635FE2
:1045C0007F4FCE01439626D96EE773E00E945D10BF
:1045D000BE01675E7F4F1ED967E073E00E945D10E9
:1045E000BE01695F7F4F16D96EE073E00E945D10D7
:1045F000BE016F5F7F4F0ED9BC0184EF94E00E9433
:10460000AC10CE0143960E949310CE010D960E94ED
:104610009310CE0107960E949310CE0101960E943E
:1046200093100E94D51ACE0149960E9493101092C1
:10463000100204C00E94740C0E946B0C11E001C0B7
:1046400010E0809110028823E1F01A8219821C8206
:104650001B821E821D826F8D78A16115710531F05C
:104660004BA15CA1CE0101960E947410AE014F5F78
:104670005F4F612F80919D037DDACE0101960E94EC
:104680009310C3010E9493100E948D0FF2CDB901C7
:104690006052710977FF02C06F5F7F4F7595679514
:1046A0008357910997FD019600E210E023E730E07F
:1046B0004EE053E0DBCC61E0809119050E94AC1123
:1046C00061E080911A050E94AC1180911905082EB5
:1046D000000C990BFC01E853FD4FE491F0E0EE0F64
:1046E000FF1FE255FD4F2591349130932105209312
:1046F0002005FC01E859FD4FE491E09326058091E7
:104700001A05082E000C990BFC01E853FD4FE491AB
:10471000F0E0EE0FFF1FE255FD4FA591B491B0936D
:104720002305A0932205FC01E859FD4FE491E09395
:1047300027058C91E82BEC9380910E0590910F0545
:10474000892B09F434C01FB7F89480919403811128
:1047500027C0EDEFF2E08491EDE9F2E09491E82FCB
:10476000F0E0EE0FFF1FEE5CFD4FA591B491EC91D0
:10477000E92321F461E085E30E942E1161E085E3E5
:104780000E94AC118CB580618CBD8CB580648CBDF1
:1047900061E084E30E94AC1161E083E30E94AC110C
:1047A000809194038F5F809394031FBFA3CC61E03B
:1047B000809117050E94AC1161E0809118050E945C
:1047C000AC1180911705082E000C990BFC01E853E1
:1047D000FD4FE491F0E0EE0FFF1FE255FD4F2591F4
:1047E000349130931D0520931C05FC01E859FD4FC1
:1047F000E491E093240580911805082E000C990B94
:10480000FC01E853FD4FE491F0E0EE0FFF1FE2558D
:10481000FD4FA591B491B0931F05A0931E05FC0117
:10482000E859FD4FE491E09325058C91E095E8234C
:10483000EC9360CC80910E0590910F05892B31F09F
:1048400080912805909129050E94E70CE0912205AE
:10485000F09123059081809127058095892380839D
:104860008BCC60E19ECC8034910509F0B6CC63E03E
:1048700085E592E00E944D1980911505813011F077
:104880006FEC19C06FE917C08036910509F0A5CC0F
:104890008091FA049091FB04409709F09ECC63E06C
:1048A00082E592E00E944D1980911505813011F04A
:1048B0006FEA01C060E184EF94E00E94850C8DCC2A
:1048C00062E296CCE0912205F091230590818091DF
:1048D0002705892B808380910E0590910F05892BE8
:1048E00009F4AECC0E947D0CABCCF80181938F0112
:1048F000F3E00D391F0709F0C5CCF1CC8EE395E04C
:104900000E9493108FE392E09093F5048093F40457
:104910008091120590911305009709F005C608953E
:10492000E7E5F4E01382128248EE53E060E070E0C5
:1049300044835583668377838BE192E09183808300
:1049400085EC90E09587848784EC90E09787868754
:1049500080EC90E0918B808B81EC90E0938B828B4C
:1049600082EC90E0958B848B86EC90E0978B868B25
:10497000118E128E138E148EA2E3B5E013961C9244
:104980001E92129714964D935D936D937C93179797
:104990008DE292E011969C938E93E4EFF4E0138203
:1049A000128220E830E03583248380E290E0978310
:1049B00086833187208793878287158A1586148698
:1049C0001786168681E0848B2FEF3FEF338B228B87
:1049D000318B208B868B178A118E108E8FE392E09D
:1049E00091838083138E128EB58FA48F178E168EAF
:1049F0008FEF83A384A385A386A384E087A380E5A8
:104A000084AB15AA6CE773E08EE395E00C949810E4
:104A1000EF920F931F93CF93DF93E80147FD02C0FE
:104A200034E001C034E1042E000C550B57FF03C0E5
:104A3000519541955109E32E022F242FAE012AD022
:104A4000CE01DF91CF911F910F91EF900895BB2779
:104A50004A3031F4992322F4BDE2909581959F4F1D
:104A600001C0BB27FB015527AA27880F991FAA1F42
:104A7000A41710F0A41B83955051B9F7A05DAA3379
:104A800008F0A95DA193009779F7B111B193119244
:104A9000CB0156C28F929F92AF92BF92CF92DF927C
:104AA000EF92FF920F931F93CF93DF93CDB7DEB7B3
:104AB00029970FB6F894DEBF0FBECDBF6A01122F43
:104AC000B02E2BE3201720F0FF24F394F00E02C049
:104AD0002CE3F22E0F2D27E0AE014F5F5F4F50D138
:104AE000BC014981842F8970813031F0E1FC06C01E
:104AF000E0FE06C090E205C09DE203C09BE201C05B
:104B000090E05E2D507143FF3CC0911102C083E0E4
:104B100001C084E0811718F4212F281B01C020E078
:104B200051110BC0F601822F30E2882319F0319326
:104B30008150FBCFC20ED11C20E0992329F0D60171
:104B40009C93F60131966F01C6010396E2FE0AC0FE
:104B50003EE4D6013C9341E411964C931197129692
:104B60003C9306C03EE6F601308341E64183328342
:104B7000FC01322F40E2332309F442C0419331500B
:104B8000FACF42FF44C0911102C083E001C084E02B
:104B9000811718F4212F281B01C020E051110BC0F0
:104BA000F601822F30E2882319F031938150FBCF38
:104BB000C20ED11C20E0992329F0D6019C93F60166
:104BC00031966F01C6010396E2FE0BC039E4D601AF
:104BD0003C933EE411963C93119736E412963C9335
:104BE00007C039E6F60130833EE6318336E632838C
:104BF000FC01322F40E2332319F041933150FBCFB7
:104C0000FC01E20FF11D10828EEF9FEFA6C021E0A4
:104C100030E0911102C020E030E0161617061CF4B7
:104C2000FB01319602C0E1E0F0E02E0F3F1FBB20F8
:104C300021F0EB2DF0E0319602C0E0E0F0E02E0F25
:104C40003F1FE12FF0E02E173F071CF4121B212F0E
:104C500001C020E08E2D887159F4F601822F30E2D8
:104C6000882319F031938150FBCFC20ED11C20E074
:104C7000992329F0D6019C93F60131966F015111C9
:104C80000BC0F601822F90E3882319F09193815095
:104C9000FBCFC20ED11C20E00F2D060F9A81342FBE
:104CA000307144FF03C0913309F40150101624F40D
:104CB000093018F008E001C001E0AB0177FF02C045
:104CC00040E050E0FB01E41BF50BA1E0B0E0AC0FCD
:104CD000BD1FEA0FFB1F8EE2A82E4B01801A910820
:104CE0000B2D10E01195019511094F3FBFEF5B07A8
:104CF00021F4D601AC9211966D01641775072CF062
:104D00008416950614F4818101C080E34150510955
:104D10003196D60111967D014017510724F0D60136
:104D20008C936701E2CF6417750739F4963320F44A
:104D3000953319F4311101C081E3F6018083F70145
:104D4000822F90E2882319F091938150FBCFF701D5
:104D5000E20FF11D108280E090E029960FB6F894E2
:104D6000DEBF0FBECDBFDF91CF911F910F91FF909E
:104D7000EF90DF90CF90BF90AF909F908F9008956D
:104D8000283008F027E03327DA01990F311D87FD1D
:104D9000916000966105710539F432602E5F3D9394
:104DA00030E32A95E1F708959F3F30F08038710590
:104DB000610509F03C5F3C5F3D93913008F08068ED
:104DC000911DDF93CF931F930F93FF92EF92192FB3
:104DD000987F9695E92F96959695E90FFF27EA57C4
:104DE000FE4F99273327EE24FF24A701E701059002
:104DF0000894079428F4360FE71EF81E491F511D2A
:104E0000660F771F881F991F0694A1F705900794D6
:104E100028F4E70EF81E491F561FC11D770F881F83
:104E2000991F661F0694A1F70590079428F4F80EC1
:104E3000491F561FC71FD11D880F991F661F771F57
:104E40000694A1F70590079420F4490F561FC71F39
:104E5000D81F990F661F771F881F0694A9F78491A2
:104E60001095177041F0D695C79557954795F794CB
:104E7000E7941A95C1F7ECE2F1E06894159015916A
:104E800035916591959105907FE27395E118F10A4E
:104E9000430B560BC90BD009C0F7E10CF11E431FA1
:104EA000561FC91FD01D7EF4703311F48A95E6CFCA
:104EB000E894015030F0080F0AF40027021708F4B4
:104EC000202F2395022F7A3328F079E37D932A95BA
:104ED000E9F710C07D932A9589F606949795679512
:104EE000379517951794E118F10A430B560BC90B28
:104EF000D00998F023957E9173957A3308F070E38A
:104F00007C932013B8F77E9170617D9330F0839588
:104F100071E37D9370E32A95E1F71124EF90FF9000
:104F20000F911F91CF91DF91992787FD909508955B
:104F30009111DEC0803219F089508550D0F7089564
:104F4000DC01FC01672F71917723E1F7329704C0F0
:104F50007C916D9370836291AE17BF07C8F308957B
:104F600040D008F481E00895E89409C097FB3EF42E
:104F700090958095709561957F4F8F4F9F4F9923A6
:104F8000A9F0F92F96E9BB279395F6958795779524
:104F90006795B795F111F8CFFAF4BB0F11F460FFE4
:104FA0001BC06F5F7F4F8F4F9F4F16C0882311F03C
:104FB00096E911C0772321F09EE8872F762F05C050
:104FC000662371F096E8862F70E060E02AF09A95EB
:104FD000660F771F881FDAF7880F9695879597F9E0
:104FE0000895990F0008550FAA0BE0E8FEEF16167A
:104FF0001706E807F907C0F012161306E407F507CD
:1050000098F0621B730B840B950B39F40A2661F040
:10501000232B242B252B21F408950A2609F4A140E3
:10502000A6958FEF811D811D08950BD07BC06CD09C
:1050300028F071D018F0952309F05DC062C01124EA
:10504000A5C081D0A0F3959FD1F3950F50E0551FD7
:10505000629FF001729FBB27F00DB11D639FAA27CD
:10506000F00DB11DAA1F649F6627B00DA11D661F1C
:10507000829F2227B00DA11D621F739FB00DA11D3D
:10508000621F839FA00D611D221F749F3327A00DF7
:10509000611D231F849F600D211D822F762F6A2F93
:1050A00011249F5750408AF0E1F088234AF0EE0F18
:1050B000FF1FBB1F661F771F881F91505040A9F725
:1050C0009E3F510570F017C061C05F3FECF3983E02
:1050D000DCF3869577956795B795F795E7959F5F8C
:1050E000C1F7FE2B880F911D9695879597F9089526
:1050F00099278827089597F99F6780E870E060E016
:1051000008959FEF80EC089500240A941616170660
:1051100018060906089500240A94121613061406A8
:1051200005060895092E0394000C11F4882352F00B
:10513000BB0F40F4BF2B11F460FF04C06F5F7F4FC3
:105140008F4F9F4F089557FD9058440F551F59F0AA
:105150005F3F71F04795880F97FB991F61F09F3F64
:1051600079F087950895121613061406551FF2CF8D
:105170004695F1DF08C0161617061806991FF1CFDD
:1051800086957105610508940895E894BB27662704
:105190007727CB0197F908955058BB27AA270ED03F
:1051A000C1CFB2DF30F0B7DF20F031F49F3F11F410
:1051B0001EF4A7CF0EF4E095E7FB9DCFE92FC3DFE8
:1051C00080F3BA17620773078407950718F071F424
:1051D0009EF5DBCF0EF4E0950B2EBA2FA02D0B0120
:1051E000B90190010C01CA01A0011124FF27591B2C
:1051F00099F0593F50F4503E68F11A16F040A22F32
:10520000232F342F4427585FF3CF469537952795A2
:10521000A795F0405395C9F77EF41F16BA0B620BA1
:10522000730B840BBAF09150A1F0FF0FBB1F661FE8
:10523000771F881FC2F70EC0BA0F621F731F841F2B
:1052400048F4879577956795B795F7959E3F08F051
:10525000B3CF9395880F08F09927EE0F9795879510
:1052600008950CD05FCF57DF40F04EDF30F021F4CF
:105270005F3F19F040CF511189CF43CF64DF98F3DE
:105280009923C9F35523B1F3951B550BBB27AA27C7
:1052900062177307840738F09F5F5F4F220F331F39
:1052A000441FAA1FA9F333D00E2E3AF0E0E830D005
:1052B00091505040E695001CCAF729D0FE2F27D008
:1052C000660F771F881FBB1F261737074807AB07D6
:1052D000B0E809F0BB0B802DBF01FF2793585F4F4B
:1052E0002AF09E3F510568F006CF50CF5F3FECF3A8
:1052F000983EDCF3869577956795B795F7959F5F10
:10530000C9F7880F911D9695879597F90895E1E063
:10531000660F771F881FBB1F621773078407BA07C2
:1053200020F0621B730B840BBA0BEE1F88F7E0951D
:10533000089504D06894B11129CF08950CDF88F046
:105340009F5790F0B92F9927B751A0F0D1F0660F71
:10535000771F881F991F1AF0BA95C9F712C0B1308C
:1053600081F013DFB1E0089510CF672F782F8827E1
:10537000B85F39F0B93FCCF3869577956795B395CB
:10538000D9F73EF490958095709561957F4F8F4F3A
:105390009F4F089526DE08F48FEF089522DE880BD4
:1053A000990B0895A1E21A2EAA1BBB1BFD010DC08B
:1053B000AA1FBB1FEE1FFF1FA217B307E407F507C5
:1053C00020F0A21BB30BE40BF50B661F771F881FA1
:1053D000991F1A9469F760957095809590959B0137
:1053E000AC01BD01CF010895EE0FFF1F881F8BBFD9
:1053F0000790F691E02D19940F931F93CF93DF93AD
:105400008230910510F482E090E0E0914605F09141
:10541000470520E030E0A0E0B0E0309719F140818E
:1054200051810281138148175907C8F084179507E5
:1054300069F4109731F012960C93129713961C93FF
:1054400027C0009346051093470522C0211531055A
:1054500019F04217530718F49A01BD01EF01DF015B
:10546000F801DBCF21153105F9F0281B390B243069
:10547000310580F48A819B816115710521F0FB0162
:105480009383828304C09093470580934605FE0171
:10549000329644C0FE01E20FF31F81939193225094
:1054A0003109398328833AC020914405309145055C
:1054B000232B41F4209113023091140230934505BF
:1054C00020934405209111023091120221153105DB
:1054D00041F42DB73EB74091150250911602241B9E
:1054E000350BE0914405F0914505E217F307A0F470
:1054F0002E1B3F0B2817390778F0AC014E5F5F4F2A
:105500002417350748F04E0F5F1F50934505409311
:1055100044058193919302C0E0E0F0E0CF01DF9178
:10552000CF911F910F910895CF93DF93009709F4C6
:1055300081C0FC01329713821282A0914605B0917E
:105540004705109781F420813181820F931F2091AC
:105550004405309145052817390751F5F093450565
:10556000E093440567C0ED0120E030E0CE17DF078F
:1055700040F44A815B819E0141155105F1F0EA0139
:10558000F5CFD383C28340815181840F951FC81703
:10559000D90759F488819981840F951F02969183C8
:1055A00080838A819B81938382832115310529F42D
:1055B000F0934705E09346053DC0E901FB83EA838C
:1055C00049915991C40FD51FEC17FD0761F48081F3
:1055D0009181840F951F0296E901998388838281C6
:1055E00093819B838A83E0E0F0E012968D919C91F9
:1055F0001397009719F0FD01DC01F7CF8D919C9175
:1056000011979D012E5F3F4F820F931F20914405FC
:10561000309145052817390769F4309729F410921D
:1056200047051092460502C013821282B0934505C9
:10563000A0934405DF91CF9108956F927F928F924E
:105640009F92AF92BF92CF92DF92EF92FF920F9311
:105650001F93CF93DF93009781F4CB01DF91CF911C
:105660001F910F91FF90EF90DF90CF90BF90AF9080
:105670009F908F907F906F90BFCEFC01E60FF71F39
:105680009C0122503109E217F30708F4A5C0EC0190
:10569000D9010D911C91119706171707A8F0053035
:1056A000110508F497C0C80104978617970708F4F6
:1056B00091C002501109061B170B019311936D93B2
:1056C0007C93CF0131DF86C05B01A01AB10A4C0187
:1056D000800E911EA0914605B0914705612C712C5A
:1056E000E12CF12C109709F446C08D919C911197F3
:1056F000A815B905B1F56C0142E0C40ED11CCA145D
:10570000DB0478F14C018A189B08640142E0C40E66
:10571000D11C1296BC9012971396AC91B5E0CB16A3
:10572000D10440F0B282A38391828082D9016D932B
:105730007C9309C00E5F1F4F800F911FF901918369
:105740008083EB2DFA2FE114F10431F0D701139689
:10575000FC93EE9312973EC0F0934705E093460505
:1057600039C06816790608F43C017D0112960D9047
:10577000BC91A02DB7CF8091440590914505881626
:105780009906E1F466167706C8F4809111029091AB
:105790001202009741F48DB79EB7409115025091C7
:1057A0001602841B950BE817F907B0F4F093450532
:1057B000E0934405F901718360830CC0CB011CDECA
:1057C0007C01009749F0A801BE0117D0CE01ACDEE4
:1057D000C70104C0CE0102C080E090E0DF91CF910C
:1057E0001F910F91FF90EF90DF90CF90BF90AF90FF
:1057F0009F908F907F906F900895FB01DC0102C015
:1058000001900D9241505040D8F70895DC0101C03D
:105810006D9341505040E0F70895FB01DC01019089
:105820000D920020E1F70895CF93DF93CDB7DEB757
:105830002E970FB6F894DEBF0FBECDBF85E08C83E8
:105840008C899D899A838983AE01485E5F4F6E89FA
:105850007F89CE010196BBD12E960FB6F894DEBF9C
:105860000FBECDBFDF91CF91089520FD09C0FC018F
:1058700023FD05C022FF02C07383628351834083EE
:10588000089544FD17C046FD17C0AB01BC01DA0105
:10589000FB01AA0FBB1FEE1FFF1F1094D1F74A0F89
:1058A0005B1F6E1F7F1FCB01BA01660F771F881F1A
:1058B000991F09C033E001C034E0660F771F881FCD
:1058C000991F3150D1F7620F711D811D911D0895EF
:1058D0000F931F93CF93DF938C01C8019AD2EC01F1
:1058E00097FD06C025DB892BC1F7B801CE01CFD2C9
:1058F000CE01DF91CF911F910F9108958F929F92CA
:10590000AF92BF92EF92FF920F931F93CF93DF93CB
:105910008C01D62F7A01B22E7CD29C0133272B32F8
:10592000310531F02D32310559F48B2D8068B82EB8
:10593000D15011F480E061C0C8016BD297FDFACF5D
:10594000CB2DCD7F2B2D2073F9F48033E9F4AA24DD
:10595000AA94AD0E09F43EC0C8015BD297FD3AC0CF
:105960009C012F7D33272835310541F4C264D25084
:1059700089F1C8014ED297FF07C02CC0B6FE02C005
:10598000C26001C0C261DA2D812C912C540120ED3E
:10599000280F283078F0C4FF03C0B80178D217C0B0
:1059A0002A3040F0C6FFF9CF2F7D3FEE320F363060
:1059B000A0F727504C2FC501B40163DF4B015C01F8
:1059C000C260D15051F0C80124D297FFE0CFC1FD91
:1059D00004C0B0CF812C912C5401C7FF08C0B094F3
:1059E000A09490948094811C911CA11CB11C2C2F1C
:1059F000B501A401C70139DF81E0DF91CF911F918B
:105A00000F91FF90EF90BF90AF909F908F9008956F
:105A10005F926F927F928F929F92AF92BF92CF923E
:105A2000DF92EF92FF920F931F93CF93DF93CDB747
:105A3000DEB7A0970FB6F894DEBF0FBECDBF5C01F6
:105A4000962E7A01F9018E010F5F1F4F680180E2E7
:105A5000D8011D928A95E9F7D50113968C9080E0C4
:105A600090E0612C712C30E061E070E083FC2591C6
:105A700083FE21918F01522E211103C080E090E01E
:105A800090C02E3511F4009751F1432F50E0481784
:105A900059073CF42D3559F12D3219F4772009F1CD
:105AA00003C0772009F468C0452D46954695469574
:105AB000D601A40FB11D452D47708B0102C0000F08
:105AC000111F4A95E2F7A8015C91452B4C93651490
:105AD00059F0561410F45394E7CF5A94E5CF31E0BF
